:100000000C9466000C948E000C948E000C948E0060
:100010000C948E000C948E000C948E000C948E0028
:100020000C948E000C948E000C948E000C948E0018
:100030000C948E000C948E000C948E000C948E0008
:100040000C94F6010C948E000C9437050C947305F7
:100050000C948E000C948E000C948E000C948E00E8
:100060000C94B80D0C948E000000000700020100F3
:100070000003040600000000000000000102040864
:100080001020408001020408102001020408102002
:10009000040404040404040402020202020203032E
:1000A00003030303000000002300260029000000D2
:1000B0000000250028002B0000000000240027007D
:1000C0002A00D4012E06180AD50CEC0111241FBEFB
:1000D000CFEFD8E0DEBFCDBF12E0A0E0B1E0ECE5AD
:1000E000FEE102C005900D92AA31B107D9F714E0E4
:1000F000AAE1B2E001C01D92AB3AB107E1F710E00E
:10010000CAECD0E004C02297FE010E941D0FC23C41
:10011000D107C9F70E948E040C94E80E0C940000DD
:1001200008950F931F93CF93DF93EC0187E00E9414
:10013000760390933B0280933A0220913C023091E7
:100140003D028217930709F10E9440020091360296
:10015000109137022091380230913902601B710BE7
:10016000820B930B0091000110910101209102017B
:1001700030910301061717072807390730F48091DB
:100180003A0290913B02019799F080913A02909146
:100190003B0290933D0280933C024AE050E060E0D5
:1001A00070E0CE01DF91CF911F910F910C94DF0988
:1001B00060E171E08EEE92E00E94F6030E94400240
:1001C000609336027093370280933802909339021D
:1001D000DCCF40E052EC61E070E08EEE92E00E94F5
:1001E000AE0560E087E00C940703CF92DF92EF92B8
:1001F000FF9285E993E00E94F60965E171E08EEED9
:1002000092E00E94F6038EE392E00E94300A8EE3B1
:1002100092E00E94BA0B6B017C01611571058105AA
:10022000910539F46CE171E08EEE92E00E94D70303
:10023000FFCF64E371E08EEE92E00E94D7034F2D72
:1002400055276627772720E130E08EEE92E00E9466
:10025000730463E471E08EEE92E00E94D7034E2DAA
:1002600050E060E070E02AE030E08EEE92E00E9424
:1002700066046EE28EEE92E00E94D9034D2D50E0AE
:1002800060E070E02AE030E08EEE92E00E947304BD
:100290006FEF8EE392E00E94790B8EE392E00E9472
:1002A000940B62E571E08EEE92E0FF90EF90DF90AC
:1002B000CF900C94F603FF920F931F93CF93DF938D
:1002C000CDB7DEB728970FB6F894DEBF0FBECDBF0F
:1002D0008E010F5F1F4F87E0F80111928A95E9F7B1
:1002E0009E01285F3F4FA80160E08EE392E00E94EC
:1002F0002A0B882309F446C060E771E08EEE92E095
:100300000E94F6036EE771E08EEE92E00E94D70342
:100310004AE050E068858EEE92E00E9487046BE828
:1003200071E08EEE92E00E94F60362E971E08EEEDB
:1003300092E00E94D703F12C11C06EE971E08EEEBD
:1003400092E00E94D703F801EF0DF11D40E150E06B
:1003500060818EEE92E00E948704F3948885F816FF
:1003600060F361E571E08EEE92E00E94F6038EEE9E
:1003700092E00E94EE0468EE73E080E090E00E945C
:100380007C0206C062EA71E08EEE92E00E94F60303
:1003900028960FB6F894DEBF0FBECDBFDF91CF9188
:1003A0001F910F91FF90089543E062E08EE392E089
:1003B0000E94210A46E950E06FE472E08AE192E08F
:1003C0000E944E0883EC91E090931B0280931A02E6
:1003D00082E080931F02089583EC91E090931B02CA
:1003E00080931A028AE192E00C9478081F920F928F
:1003F0000FB60F9211242F933F938F939F93AF9338
:10040000BF938091E5029091E602A091E702B0913E
:10041000E8023091ED02232F2D5F2D3720F4019655
:10042000A11DB11D05C0232F2A570296A11DB11D84
:100430002093ED028093E5029093E602A093E702F9
:10044000B093E8028091E9029091EA02A091EB0258
:10045000B091EC020196A11DB11D8093E902909329
:10046000EA02A093EB02B093EC02BF91AF919F918F
:100470008F913F912F910F900FBE0F901F90189565
:100480000F931F938FB7F8940091E5021091E60245
:100490002091E7023091E8028FBFB801C9011F9196
:1004A0000F9108950F931F939FB7F8940091E9025D
:1004B0001091EA022091EB023091EC0286B5A89BE4
:1004C00006C08F3F21F00F5F1F4F2F4F3F4F9FBF41
:1004D000322F212F102F0027080F111D211D311D34
:1004E00042E0000F111F221F331F4A95D1F7B801B8
:1004F000C9011F910F910895CF92DF92EF92FF9261
:10050000CF93DF936B017C010E945202EB010EC07E
:100510000E9452026C1B7D0B683E734038F081E0F4
:10052000C81AD108E108F108C851DC4FC114D10440
:10053000E104F10469F7DF91CF91FF90EF90DF9034
:10054000CF900895789484B5826084BD84B581602D
:1005500084BD85B5826085BD85B5816085BDEEE6CB
:10056000F0E0808181608083E1E8F0E010828081AA
:1005700082608083808181608083E0E8F0E0808118
:1005800081608083E1EBF0E0808184608083E0EB38
:10059000F0E0808181608083EAE7F0E08081846020
:1005A000808380818260808380818160808380817C
:1005B000806880831092C1000895833069F028F428
:1005C0008130A1F0823011F514C08630B1F087304F
:1005D000C1F08430D9F404C0809180008F7703C0CB
:1005E000809180008F7D80938000089584B58F77FF
:1005F00002C084B58F7D84BD08958091B0008F774F
:1006000003C08091B0008F7D8093B0000895CF9398
:10061000DF9390E0FC01E458FF4F4491FC01E05768
:10062000FF4F8491882341F190E0880F991FFC01CE
:10063000E854FF4F25913491D90182559F4FFC0119
:1006400085919491C82FD92F9FB7F8948C916111FF
:1006500006C0409584238C938881842308C062302F
:1006600041F4242F209582238C938881842B8883C6
:1006700002C0842B8C939FBFDF91CF9108950F937D
:100680001F93CF93DF931F92CDB7DEB7282F30E0B3
:10069000F901E859FF4F8491F901E458FF4F149193
:1006A000F901E057FF4F04910023D1F0882321F096
:1006B00069830E94DD026981E02FF0E0EE0FFF1FE9
:1006C000E255FF4F85919491DC019FB7F8948C918E
:1006D000611103C01095812301C0812B8C939FBFB2
:1006E0000F90DF91CF911F910F910895CF93DF93DA
:1006F000282F30E0F901E859FF4F8491F901E458BF
:10070000FF4FD491F901E057FF4FC491CC2389F0FA
:1007100081110E94DD02EC2FF0E0EE0FFF1FEC557F
:10072000FF4F85919491DC018C918D2321E030E085
:1007300011F420E030E0C901DF91CF910895CF920C
:10074000DF92EF92FF920F931F93CF93DF936C0191
:10075000EB017A01E60EF71E00E010E00BC0699194
:10076000D601ED91FC910190F081E02DC601099533
:10077000080F191FCE15DF0591F7C801DF91CF9142
:100780001F910F91FF90EF90DF90CF900895DB01C4
:100790000D900020E9F7AD0141505109461B570B60
:1007A000DC01ED91FC910280F381E02D09940C9421
:1007B000C703DC01ED91FC910190F081E02D0994DB
:1007C0000F931F93CF93DF93EC016DE00E94D90349
:1007D0008C016AE0CE010E94D9039C01200F311FD9
:1007E000C901DF91CF911F910F9108950F931F932E
:1007F000CF93DF93EC010E94C7038C01CE010E94CE
:10080000E0039801280F391FC901DF91CF911F9193
:100810000F9108954F925F926F927F929F92AF9245
:10082000BF92CF92DF92EF92FF920F931F93CF93DD
:10083000DF93CDB7DEB7A1970FB6F894DEBF0FBE3A
:10084000CDBF5C016A017B01922E19A281E0821763
:1008500010F08AE0982E8E010F5D1F4F492C512C0D
:10086000612C712CC701B601A30192010E94F90EFF
:100870008C2D929E80191124015011098A3014F494
:10088000805D01C0895CF801808369017A01C1142F
:10089000D104E104F10431F7B801C5010E94C70396
:1008A000A1960FB6F894DEBF0FBECDBFDF91CF91FA
:1008B0001F910F91FF90EF90DF90CF90BF90AF907E
:1008C0009F907F906F905F904F9008952115310514
:1008D00041F4DC01ED91FC910190F081E02D642F59
:1008E00009940C940A040F931F93CF93DF93EC01A8
:1008F0000E9466048C01CE010E94E0039C01200F3F
:10090000311FC901DF91CF911F910F9108959A0175
:10091000462F50E060E070E00C9466040E94A20252
:100920000E94F500CAE6D5E00E945B012097E1F342
:100930000E946A05F9CFFC0184859585FC01E05C85
:10094000FF4F20813181FC01EE5BFF4F808191815F
:10095000281B390B2F733327C9010895FC018485A7
:100960009585FC01E05CFF4F40815181FC01EE5B0D
:10097000FF4F208131814217530741F00190F081F0
:10098000E02DE80FF91F208130E002C02FEF3FEF8C
:10099000C9010895FC0184859585FC01E05CFF4F49
:1009A00040815181FC01EE5BFF4F20813181421774
:1009B000530781F0A081B181A80FB91F8C912081CC
:1009C00031812F5F3F4F2F73332731832083282FAF
:1009D00030E002C02FEF3FEFC9010895FC0186858A
:1009E0009785FC01E05CFF4FDC01AE5BBF4F4081AF
:1009F00051812D913C91119742175307C1F70895EA
:100A0000CF93DF93FC0186859785DC01A05CBF4F07
:100A10002D913C9111972F5F3F4F2F733327EC019E
:100A2000CE5BDF4F4881598124173507D9F30D90EC
:100A3000BC91A02DA80FB91F6C93A685B785A05CAB
:100A4000BF4F11963C932E93A689B7892C9181E0D4
:100A500090E0058C02C0880F991F0A94E2F7282BBA
:100A60002C9381E090E0DF91CF91089508951F923B
:100A70000F920FB60F9211242F933F934F938F93A2
:100A80009F93EF93FF934091C600809191039091C3
:100A9000920301968F7399272091930330919403C9
:100AA0008217930759F0E0919103F0919203EF5A66
:100AB000FC4F40839093920380939103FF91EF91B9
:100AC0009F918F914F913F912F910F900FBE0F905B
:100AD0001F9018958EEE92E00E949B04892B11F0D6
:100AE0000C94360508951F920F920FB60F921124A1
:100AF0002F933F938F939F93EF93FF9320914D03F9
:100B000030914E0380914F0390915003281739077D
:100B100031F48091C1008F7D8093C10014C0E091B9
:100B20004F03F0915003E35FFC4F208180914F030E
:100B30009091500301968F7399279093500380935F
:100B40004F032093C600FF91EF919F918F913F91AA
:100B50002F910F900FBE0F901F901895CF92DF929C
:100B6000EF92FF92CF93DF93EC016A017B01411575
:100B700081EE580761057105F9F0EC89FD8981E086
:100B800090E00E8C02C0880F991F0A94E2F78083D0
:100B900060E079E08DE390E0A70196010E94F90EF4
:100BA00021503109410951095695479537952795A7
:100BB000211580E1380798F0EC89FD89108260E802
:100BC00074E88EE190E0A70196010E94F90E215091
:100BD0003109410951095695479537952795E88977
:100BE000F9893083EA89FB892083EE89FF89408176
:100BF00081E090E09C010A8C02C0220F331F0A940E
:100C0000E2F7422B4083EE89FF8940819C010B8CE7
:100C100002C0220F331F0A94E2F7422B4083EE8971
:100C2000FF8940819C010C8C02C0220F331F0A9463
:100C3000E2F7422B4083EE89FF8920810D8C02C0B0
:100C4000880F991F0A94E2F7809582238083DF91B1
:100C5000CF91FF90EF90DF90CF9008951092F10226
:100C60001092F00288EE93E0A0E0B0E08093F202F0
:100C70009093F302A093F402B093F50287ED91E014
:100C80009093EF028093EE0281E593E09093FB0254
:100C90008093FA028DE093E09093FD028093FC0232
:100CA00085EC90E09093FF028093FE0284EC90E04C
:100CB000909301038093000380EC90E090930303F2
:100CC0008093020381EC90E09093050380930403EA
:100CD00086EC90E0909307038093060384E0809372
:100CE000080383E08093090387E080930A0385E08B
:100CF00080930B0381E080930C0308950895DC0139
:100D00001696ED91FC911797309709F00994089584
:100D1000DC011696ED91FC911797309709F0099434
:100D2000089508952F923F924F925F926F927F9213
:100D30008F929F92AF92BF92CF92DF92EF92FF92EB
:100D40000F931F93CF93DF93EB012DB63EB628820E
:100D50003982EC01288039804FB6F8943EBE2DBE12
:100D60004FBEDF91CF911F910F91FF90EF90DF90D9
:100D7000CF90BF90AF909F908F907F906F905F903B
:100D80004F903F902F900895FC018581843018F09A
:100D90008581886085830895FC01858183FF03C078
:100DA0008581877F85830895FC01858183FB882762
:100DB00080F90895CF93DF93EC018D81823048F064
:100DC000E881F9810190F081E02DCE01099584E060
:100DD0008D83DF91CF910895DC0115968C91159745
:100DE00082FF2CC015968C911597887261F4B09390
:100DF0009A03A093990365E973E0CD0108960E94D8
:100E0000920681E008950FB6F89486B515B29091D8
:100E1000E9020FBE10FE03C08F3F09F0915011246C
:100E20000024990F990F880F001C880F001C90292F
:100E30001E968C931E971F969C930DC015968C91B1
:100E4000159781FF08C0ED91FC9111970480F58101
:100E5000E02DCD01099580E00895CF93DF93EC015B
:100E60008D8183FD1AC08D8184FF17C080919B0303
:100E70008F5F80939B0385E08D83E881F9810280F9
:100E8000F381E02DCE01099584E08D8380919B0351
:100E9000815080939B0381E001C080E0DF91CF917E
:100EA0000895FC018091A9039091AA039383828302
:100EB000F093AA03E093A903648381E085830895F6
:100EC00027EE31E0FC01318320831782168261E036
:100ED0000C945107FC01A091A903B091AA03A81793
:100EE000B90739F4828193819093AA038093A9036F
:100EF00011C012968D919C9113978E179F0739F40C
:100F00008281938113969C938E93129703C0DC0188
:100F1000009779F715820895CF93DF93EC0187EE60
:100F200091E099838883CE010E946A078091A7038C
:100F30009091A8038C179D0731F48A819B8190932F
:100F4000A8038093A7038C81843011F0823089F448
:100F50008091A0039091A1032C853D85821B930B6A
:100F60009093A1038093A0038091A6038150809366
:100F7000A603DF91CF910895CF92DF92EF92FF9277
:100F80000F931F93CF93DF93EC016A017B010E94C3
:100F900040028B019C010C0D1D1D2E1D3F1D088361
:100FA00019832A833B83B801C901DF91CF911F9137
:100FB0000F91FF90EF90DF90CF90089540E050E0C8
:100FC000BA010C94BC07CF92DF92EF92FF920F937D
:100FD0001F93FC01C080D180E280F3800E94400218
:100FE00097018601061B170B280B390B37FF03C02F
:100FF00000E010E09801B801C9011F910F91FF9026
:10100000EF90DF90CF900895009721F40895FC01B0
:101010004193CF0186179707D0F30895FC01809183
:10102000A6038F5F8093A60313861286118610860F
:1010300017821682A281B3818091A7039091A803A1
:10104000938382835E2F4F2FE093A703F093A8032F
:10105000A817B90791F0B093AA03A093A90301C000
:10106000D90112962D913C91139728173907C1F792
:1010700012965C93129713964C9382E084830895A2
:10108000FC01CB01BA019387828761507109680F17
:10109000791F7187608745E50C9404080F931F93AF
:1010A000CF93DF9300D000D0CDB7DEB78C014B8358
:1010B0005C8369837A830E94600789EF91E0F8017D
:1010C00091838083C80144960E94DE07C8010E9474
:1010D0000E084B815C8169817A81C8010F900F9065
:1010E0000F900F90DF91CF911F910F910C944008BA
:1010F00029EF31E0FC01318320830C948C07CF93DE
:10110000DF93EC018A819B810097F1F0FC0125813E
:101110002C722430C9F422C00FB6F89486B515B2EB
:101120009091E9020FBE10FE03C08F3F09F091506D
:1011300011240024990F990F880F001C880F001CA0
:1011400090298E879F8719C010929A031092990355
:10115000BE01685F7F4F85E993E00CC090939803D0
:101160008093970390939A0380939903BE01685FDD
:101170007F4F08960E949206CFCFDF91CF910895BE
:1011800020919B03211116C0FC0122893389261767
:10119000370714F4738B628BFC0120893189A90114
:1011A00055954795641B750B620F731F718B608B90
:1011B0000C947F0808956115710501F10FB6F8943C
:1011C00026B515B23091E9020FBE10FE03C02F3FC5
:1011D00009F0315011240024330F330F220F001C6B
:1011E000220F001C3029FC0146855785241B350B36
:1011F000261737074CF0B9010C94C00820919B03C7
:10120000211102C00C947F080895CF93DF93EC0165
:1012100088859985892B09F494C08D8181FF5EC0F2
:10122000F89465E973E0CB010E9492068D8182FFFC
:1012300043C0198A188A1B8A1A8A85E08D838D819A
:1012400083FD34C0E881F9810684F785E02DCE0165
:1012500009958C859D85009709F10FB6F89466B5C0
:1012600015B27091E9020FBE10FE03C06F3F09F086
:10127000715011240024770F770F660F001C660F42
:10128000001C70292E853F85621B730B6817790738
:101290000CF4D5CFCE010E94C008D1CF80919B0322
:1012A0008111CDCFCE010E947F08C9CF60E070E0F0
:1012B000CE010E94DB08C3CF8091950390919603E5
:1012C000EDB7FEB7A885B98520812C931197B98712
:1012D000A8873197E817F907A9F77894CE010E94FB
:1012E000DA0620919C0330919D033D872C878091E5
:1012F000A0039091A103820F931F9093A103809369
:10130000A0030FB6F89486B515B29091E9020FBE0E
:1013100010FE03C08F3F09F0915011240024990F53
:10132000990F880F001C880F001C90298E879F87BB
:1013300040E050E0BA01CE014496DF91CF910C9489
:10134000BC07DF91CF9108950F931F93CF93DF9345
:10135000EC014496141615061606170634F0DF91B4
:10136000CF911F910F910C94DE07222369F00C8915
:101370001D892E893F89040F151F261F371F0C8BCF
:101380001D8B2E8B3F8B02C00E94BC0786E08D8395
:101390008E010C5E1F4F05C060E070E0CE010E9420
:1013A000DB08C8010E94E307672B682B692BA1F7B4
:1013B00085E08D83DF91CF911F910F91089520E0FB
:1013C0000C94A409FC0180E991E0908787839287BF
:1013D00081871486138616861586108A17861382CF
:1013E00012821582148281E086830895CF93DF9361
:1013F000EC0189859A859C878B878091A9039091C0
:10140000AA030BC0DC01ED91FC910480F581E02D75
:101410000995EA81FB81828193819B838A838A81FA
:101420009B81009779F710929B03DF91CF910895EC
:1014300085E993E00C94E209682F8BEE93E00C941D
:10144000590CCF93DF93EC01862F6883498360E0CA
:101450000E94070361E08981DF91CF910C9407031B
:10146000CF93DF93EC018BEE93E00E94990C61E047
:1014700089810E943F0360E089810E943F0360E907
:1014800071E080E090E00E947C0261E08981DF9160
:10149000CF910C943F03FC0180810E94760391E080
:1014A000813009F490E0892F0895FF920F931F93E4
:1014B000CF93DF93062FF72E142F62E070E080E0C9
:1014C00090E00E947C02412F4E5F64E28BEE93E03D
:1014D0000E94B00C8BEE93E00E94060CC02FDF2D13
:1014E0000BC061E070E080E090E00E947C028BEE37
:1014F00093E00E94060C89938C2F801B811788F340
:10150000DF91CF911F910F91FF900895CF93DF93BB
:1015100000D000D000D0CDB7DEB746E0BE016F5F8F
:101520007F4F0E94550A46E050E06AE071E0CE012C
:1015300001960E94EB0E9C0181E0232B09F080E0D4
:1015400026960FB6F894DEBF0FBECDBFDF91CF91C8
:101550000895CF92DF92EF92FF920F931F93CF9354
:10156000DF937B01C42FCF5F62E070E080E090E00A
:101570000E947C0264E270E08BEE93E00E94BD0C5E
:1015800080E00E941C0A80E00E941C0A8FEF0E94EB
:101590001C0A8C2F0E941C0A8C2F81950E941C0A09
:1015A00084ED0E941C0AC12C83EDD82ED0E0219737
:1015B0000AC00E0D1F1DF80180810E941C0AF8014F
:1015C0008081D80EC3940C2D10E00C171D078CF3EE
:1015D0008D2D80950E941C0A80E00E941C0A8BEED3
:1015E00093E0DF91CF911F910F91FF90EF90DF90EB
:1015F000CF900C94D20CEF92FF920F931F93CF9346
:10160000DF93EC0179010E94A90A00E010E00EC00E
:10161000E114F10429F0065F1F4FE016F10688F08F
:101620006AE070E080E090E00E947C02CE010E94BF
:101630004B0A813069F7CE010E94860A91E0811140
:1016400001C090E0892FDF91CF911F910F91FF9002
:10165000EF900895EF92FF920F931F93CF93DF9334
:10166000EC018A0179018AE48093AB0381E08093E5
:10167000AC036093AD0328EE33E043E06BEA73E024
:10168000CE010E94FB0A811108C080E02BC06AE0F5
:1016900070E080E090E00E947C02CE010E944B0A44
:1016A0008130A9F744E16BEA73E0CE010E94550A4C
:1016B0008091B203813049F78091B703F7018083AD
:1016C00020E00BC0822F90E0FC01E555FC4F3585F2
:1016D000F801E80FF91F30832F5F8091B7032817B7
:1016E00088F381E0DF91CF911F910F91FF90EF90F0
:1016F000089522E32093AB0325E02093AC032FEF62
:101700002093AD0321E02093AE036093AF0328EE56
:1017100033E045E06BEA73E00E94FB0A91E081113F
:1017200001C090E0892F0895CF93DF93EC0194E1FD
:101730009093AB0381E08093AC039093AD038093CF
:10174000AE0328EE33E044E06BEA73E0CE010E9482
:10175000FB0A882359F048E06BEA73E0CE010E944F
:10176000550A81E09091B103953109F080E0DF9155
:10177000CF9108950F931F938C0182E08093AB0368
:1017800028EE33E041E06BEA73E0C8010E94FB0AF7
:10179000811104C000E010E098012AC04CE06BEA1F
:1017A00073E0C8010E94550A46E050E064E071E031
:1017B0008BEA93E00E94EB0E009761F70091B20371
:1017C00010E020E030E0322F212F102F00278091F1
:1017D000B303082B322F212F102F00278091B40341
:1017E000082B322F212F102F00278091B503082BB3
:1017F000B801C9011F910F91089520911B0430E099
:1018000080911C04281B3109C901089580911C0492
:1018100090911B04891750F4E82FF0E0E35EFB4F32
:10182000208130E08F5F80931C0402C02FEF3FEFD8
:10183000C9010895E0911C0480911B04E81730F45D
:10184000F0E0E35EFB4F208130E002C02FEF3FEF7E
:10185000C90108950895CF92DF92EF92FF920F93FE
:101860001F93CF93DF937C01CB018A012091F70373
:10187000222391F0EB016B01C40ED51E09C06991C2
:10188000D701ED91FC910190F081E02DC701099500
:10189000CC15DD05A1F703C0642F0E948F0DC80190
:1018A000DF91CF911F910F91FF90EF90DF90CF903C
:1018B0000895CF93DF931F92CDB7DEB76983209150
:1018C000F7032223D1F02091F803203240F021E0E9
:1018D00030E0FC013383228320E030E015C08091AA
:1018E000F903E82FF0E0E650FC4F998190838F5F79
:1018F0008093F9038093F80305C061E0CE0101965F
:101900000E948F0D21E030E0C9010F90DF91CF914F
:101910000895FC011382128248EE53E060E070E00B
:1019200044835583668377838DE092E0918380833F
:10193000089510921C0410921B041092F903109247
:10194000F8030C94D90C862F413208F040E26DE187
:1019500074E00E94F70C10921C0480931B040895FD
:1019600021E00C94A30C81E08093F70360931A04A8
:101970001092F9031092F80308950C94B30C0F938E
:10198000062F21E04091F8036AEF73E080911A047A
:101990000E943C0D1092F9031092F8031092F70385
:1019A0000F91089561E00C94BF0C8BEE93E00C94C2
:1019B000890C1092460481E0809344041092430401
:1019C00061E082E10E943F0361E083E10E943F0306
:1019D000E9EBF0E080818E7F808380818D7F808342
:1019E00088E48093B80085E48093BC000895413278
:1019F00008F03FC0909146049111FCCF91E0909384
:101A00004604209344042FEF20933D041092420497
:101A1000242F215020934104909345049091450434
:101A2000880F892B8093450480914304813041F4D1
:101A300010924304809145048093BB0085EC01C063
:101A400085EE8093BC00809146048130E1F3809163
:101A50004204841710F44091420427E434E0FB016F
:101A6000D90102C08D9181938A2F821B8417D0F3F4
:101A700001C040E0842F08950F93413208F046C022
:101A8000909146049111FCCF92E09093460400930C
:101A900044049FEF90933D0410924204409341040C
:101AA000FB0167E474E0DB0102C091919D939A2FE2
:101AB000961B9417D0F31092450490914504880F1B
:101AC000892B8093450480914304813041F4109226
:101AD0004304809145048093BB0085EC01C085EEF2
:101AE0008093BC00222321F0809146048230E1F3F0
:101AF00080913D048F3F61F080913D04803251F030
:101B000080913D04803341F483E007C081E005C04B
:101B100080E003C082E001C084E00F91089561324B
:101B200098F420914604243089F460933F04FC012A
:101B300087E694E0DC0102C021912D932A2F281B17
:101B40002617D0F380E0089581E0089582E008959B
:101B500085ED8093BC008091BC0084FDFCCF109289
:101B60004604089585EC8093BC00109246040895C5
:101B70001F920F920FB60F9211242F933F934F9302
:101B80005F936F937F938F939F93AF93BF93EF93E5
:101B9000FF938091B900887F803609F49FC058F583
:101BA000883209F45BC090F4803109F452C038F4F3
:101BB000882309F4F8C0883009F0F9C04AC0883198
:101BC00009F44CC0803209F0F2C05CC0803409F4E2
:101BD0006BC038F4803309F455C0883309F0E7C08E
:101BE00054C0803509F454C0883509F462C0883483
:101BF00009F0DDC0DAC0883909F4CBC0A8F4883711
:101C000009F46CC038F4883609F468C0803709F0EC
:101C1000CEC064C0883809F4BCC0803909F464C0FF
:101C2000803809F0C4C060C0803B09F48AC038F431
:101C3000803A09F46BC0883A09F0B9C082C0803C90
:101C400009F4ABC0883C09F4A8C0883B09F0AFC0D8
:101C50008DC0809145048093BB0012C090914204D6
:101C600080914104981788F580914204E82FF0E0B4
:101C7000E95BFB4F90819093BB008F5F80934204A0
:101C800085EC88C080933D0490C080933D0456C08D
:101C9000809142049091BB00E82FF0E0E95BFB4F9C
:101CA00090838F5F8093420490914204809141041D
:101CB0006DC0809142049091BB00E82FF0E0E95B99
:101CC000FB4F90838F5F8093420480914404811185
:101CD0006CC081E08093430484EA60C083E0809319
:101CE000460410923E04CCCF80913E04803208F02E
:101CF00050C080913E049091BB00E82FF0E0E55782
:101D0000FB4F90838F5F80933E04BACF80913E0457
:101D1000803230F4E0913E04F0E0E557FB4F108252
:101D20000E94A80D60913E04E0918704F091880420
:101D300070E08BE894E0099510923E040E94B20D89
:101D400036C084E0809346041092400410923F0411
:101D5000E0918904F0918A04099580913F048111F2
:101D600005C081E080933F04109267048091400495
:101D7000E82FF0E0E959FB4F90819093BB008F5F13
:101D8000809340049091400480913F04981708F498
:101D900077CF85E88093BC000AC085EC8093BC00B7
:101DA0001092460404C010923D040E94A80DFF91B9
:101DB000EF91BF91AF919F918F917F916F915F91C3
:101DC0004F913F912F910F900FBE0F901F9018953C
:101DD000F8940C94210FFB01DC014150504030F08D
:101DE0008D910190801919F40020B9F7881B990B87
:101DF0000895A1E21A2EAA1BBB1BFD010DC0AA1F4C
:101E0000BB1FEE1FFF1FA217B307E407F50720F063
:101E1000A21BB30BE40BF50B661F771F881F991FDE
:101E20001A9469F760957095809590959B01AC0127
:101E3000BD01CF010895EE0FFF1F0590F491E02D35
:101E4000099410E0CAECD0E004C0FE010E941D0F0E
:0C1E50002296CC3CD107C9F7F894FFCFD4
:101E5C00C800000000FF06FAD5030000FF00FF00D9
:101E6C00506F73740048656C6C6F21004469646E2C
:101E7C0027742066696E6420504E35337820626F6B
:101E8C0061726400466F756E6420636869702050DF
:101E9C004E35004669726D77617265207665722EDB
:101EAC00200057616974696E6720666F7220616EDD
:101EBC002049534F31343434334120636172640010
:101ECC00466F756E64206120636172642100554910
:101EDC0044204C656E6774683A2000206279746502
:101EEC0073005549442056616C75653A20002030CA
:101EFC00780054696D6564206F757420776169741E
:101F0C00696E6720666F72206120636172640000E5
:101F1C00000000E90090000509EC06C406D406CCCC
:101F2C000691000000000000059F039B04CA04AE4C
:101F3C0004EE04000000007E067F06DA062D07C4BE
:101F4C0006D406CC0600000000910690000509ECB2
:101F5C0006C406D406CC06880600000000590C2BDB
:0A1F6C000CFD0B060C1A0C2A0C00E9
:00000001FF
